:100000000C9446000C9465000C9465000C946500FB
:100010000C9465000C9465000C9465000C946500CC
:100020000C9465000C9490020C9465000C9465008F
:100030000C9465000C9465000C9465000C946500AC
:100040000C9465000C9465000C9465000C9465009C
:100050000C9465000C9465000C9465000C9465008C
:100060000C9465000C9465000C9465000C9465007C
:100070000C9465000C9465000C9465000C9465006C
:100080000C9465000C9465000C94650011241FBE4F
:10009000CFEFD0E1DEBFCDBF11E0A0E0B1E0E2E202
:1000A000FDE000E00BBF02C007900D92AE31B1073A
:1000B000D9F711E0AEE1B1E001C01D92A137B1075F
:1000C000E1F70E94DE010C948F060C9400008091F1
:1000D000020190910301019790938700809386001D
:1000E00083E280938B008AE180938A0080E480938E
:1000F0008C00149A0895282F392FC901880F991F51
:10010000880F991F9C01220F331F220F331F820F6C
:10011000931F8D579C4F909385008093840088ECAB
:1001200090E00E94780208958458934064E170E062
:100130000E947903862F972F0895DE9A90E00E94FF
:100140007802DE988BB3807F8BBB0895CF93C82F46
:10015000DC988BB39C2F92959F70892B8BBB82E090
:100160000E949D008BB3CF70C82BCBBB82E00E9456
:100170009D00DC9ACF91089581E00E94A60081E065
:1001800090E00E947802089582E00E94A6000895FF
:100190008FEF8ABB83E08BBBDE9A81E090E00E9408
:1001A0007802DE9885E090E00E947802DE9A81E095
:1001B00090E00E947802DE98DE9A81E090E00E9452
:1001C0007802DE9882E08BBB81E00E949D008BB3B9
:1001D0008BBB81E00E949D008BB38E608BBB81E066
:1001E0000E949D008BB38BBB81E00E949D008BB36E
:1001F00086608BBB81E00E949D008BB38BBB81E04E
:100200000E949D00D89A81E00E949D00DC9A0E9485
:10021000C400089580EC0E94A600089584E90E941D
:10022000A600089584ED0E94A6000895883618F46B
:1002300080680E94A600089588E10E94A6000895A3
:10024000CF93C82F8BB39C2F92959F70892B8BBB1C
:1002500081E00E949D008BB3CF70C82BCBBB81E0A7
:100260000E949D00CF910895EF92FF920F931F93EC
:10027000CF93DF93E82FF92FEF0109900020E9F7E2
:100280002197CE1BDF0B1C161D0674F4E82EF92EE9
:1002900000E010E0F70181917F010E9420010F5FD3
:1002A0001F4FC017D107B1F7DF91CF911F910F9169
:1002B000FF90EF900895CF92DF92EF92FF920F930D
:1002C0001F93CF93DF93CDB7DEB7C155D0400FB6A4
:1002D000F894DEBF0FBECDBFFE01E45AFF4F41913F
:1002E0005191CE01019661E570E02E2F3F2F0E94C3
:1002F000B0038EE191E0BE016F5F7F4F0E94A003CB
:10030000282F392F2115310509F448C08EE191E0DD
:10031000BE016F5F7F4F0E94A9030E94BC006E0167
:100320000894C11CD11C00E010E00F2EF4E1EF2E68
:10033000FF24F02D2BC08A3051F4C801B7010E9470
:1003400079039701281B390B020F131F04C00E9469
:1003500020010F5F1F4FC801B7010E94790300976A
:10036000A9F4C801B7010E9479036230710549F010
:100370006330710549F06130710541F40E940A0152
:1003800005C00E940E0102C00E941201F601819177
:100390006F01882319F0003511056CF2CF5ADF4F39
:1003A0000FB6F894DEBF0FBECDBFDF91CF911F9186
:1003B0000F91FF90EF90DF90CF9008950E94C800BA
:1003C0000E9467000E94A70280E293E00E949400CE
:1003D0000E947B00C0E2D3E001E010E00F2EF4E0C9
:1003E000EF2EF1E0FF2EF02D0F2EF4E6CF2EDD24C0
:1003F000F02D0F2EF2E3AF2EBB24F02D00D000D055
:1004000000D0EDB7FEB73196ADB7BEB71296FC92ED
:10041000EE921197D383C283158304830E945B01FC
:100420008DB79EB706960FB6F8949EBF0FBE8DBFD0
:100430000E94AE028233F1F0833318F48133F1F677
:1004400005C0833331F18433C9F632C0C801880F47
:10045000991F880F991F9C01220F331F220F331FF2
:10046000820F931FC80FD91FCE010E9494000E94D3
:100470007B00C4CF0A9DC0010B9D900D1A9D900D6D
:100480001124C80FD91FCE010E9494000E947B0046
:10049000B5CF0C9DC0010D9D900D1C9D900D11249C
:1004A000C80FD91FCE010E9494000E947B00A6CFE6
:1004B000109501951F4FA2CF1092700110926F01FD
:1004C000882331F48BE085BD87B7806887BF07C07C
:1004D000813029F489E085BD87B7806887BF78942B
:1004E000089587B78F7787BF85B58F7785BD0895C6
:1004F000CF93DF93EC018AEF83BD109270011092CD
:100500006F0180E00E945C0280916F019091700108
:100510008C179D07C8F30E947102DF91CF91089557
:100520001F920F920FB60F9211248F939F93809179
:100530006F019091700101969093700180936F010B
:100540009F918F910F900FBE0F901F90189584B3BD
:10055000807C84BB85B38F6385BB089583B390E0B3
:100560008F73907087339105B1F0883391053CF417
:100570008F31910571F08F329105A9F416C08D333A
:10058000910569F08E33910561F08B33910559F433
:1005900004C086E3089584E3089583E3089582E325
:1005A000089581E3089580E3089585E3089584B371
:1005B0008F7384BB85B3806C85BB089593B3907CA7
:1005C00080911D01803C39F4903839F081E09034FD
:1005D00029F080E003C080E001C08FEF90931D01FF
:1005E000089582B1806F82B983B18F7883B982E038
:1005F00090E00E94780283B18F7083B90895BF9212
:10060000CF92DF92EF92FF920F931F93CF93DF93DE
:100610007C016130710589F5C3B1181619060CF01B
:100620005EC0C295CF7000E010E0DD246894D1F880
:10063000CC246894C2F8D1E0BB246894B3F8C130EC
:1006400031F0C23031F0C43031F4CB2D05C0CD2DA6
:1006500003C0CC2D01C0CD2F83B19C2F9295907FEC
:100660008F70892B83B982E090E00E9478020F5F3F
:100670001F4F0E151F0519F732C08FEF6F3F780718
:1006800071F5C3B11E141F0454F5C295CF7000E07C
:1006900010E0DD246894D3F8CC24C394D4E0BB24C8
:1006A0006894B1F8C13031F0C23031F0C43031F467
:1006B000CB2D05C0CD2D03C0CC2D01C0CD2F83B1D6
:1006C0009C2F9295907F8F70892B83B982E090E068
:1006D0000E9478020F5F1F4F0E151F0519F7DF915B
:1006E000CF911F910F91FF90EF90DF90CF90BF902F
:1006F000089597FB092E07260AD077FD04D00CD069
:1007000006D000201AF4709561957F4F0895F6F792
:10071000909581959F4F0895AA1BBB1B51E107C07F
:10072000AA1FBB1FA617B70710F0A61BB70B881F81
:10073000991F5A95A9F780959095BC01CD01089510
:10074000FB01DC018D91019080190110D9F3990B07
:100750000895FB01DC0101900D920020E1F708955E
:100760000F931F93CF93DF93CDB7DEB72E970FB6BE
:10077000F894DEBF0FBECDBF8C0186E08C831A8358
:10078000098377FF02C060E070E8615070407E83AB
:100790006D83CE010196BA01A9010E94E8034D8143
:1007A0005E8157FD0AC02F813885421753070CF42C
:1007B0009A01020F131FF80110822E960FB6F894BB
:1007C000DEBF0FBECDBFDF91CF911F910F91089576
:1007D0002F923F924F925F926F927F928F929F9251
:1007E000AF92BF92CF92DF92EF92FF920F931F933F
:1007F000CF93DF93CDB7DEB72D970FB6F894DEBF5A
:100800000FBECDBF3C017D876C875A01FC0117826A
:100810001682838181FFC8C12E010894411C511C9E
:10082000F3019381EC85FD8593FD859193FF819183
:10083000FD87EC87882309F4B3C1853241F493FD29
:10084000859193FF8191FD87EC87853229F490E0B3
:10085000B3010E940506E4CFFF24EE2410E010321D
:10086000B0F48B3269F08C3228F4803251F083324C
:1008700071F40BC08D3239F0803349F411602CC013
:100880001260146029C0186027C0106125C017FDD0
:100890002EC0282F20532A3098F416FF08C08F2D21
:1008A000880FF82EFF0CFF0CF80EF20E15C08E2DDF
:1008B000880FE82EEE0CEE0CE80EE20E10620CC073
:1008C0008E3221F416FD6CC1106406C08C3611F412
:1008D000106802C0883659F4EC85FD8593FD85913A
:1008E00093FF8191FD87EC87882309F0B8CF982F7B
:1008F0009554933018F09052933038F424E030E05F
:10090000A20EB31E3FE339830FC0833631F0833725
:1009100081F0833509F05AC022C0F50180818983B6
:1009200022E030E0A20EB31E21E0C22ED12C420103
:1009300014C092E0292E312C2A0C3B1CF50180803A
:10094000918016FF03C06F2D70E002C06FEF7FEF44
:10095000C4010E94FA056C0151011F7715C082E0A5
:10096000282E312C2A0C3B1CF5018080918016FF2B
:1009700003C06F2D70E002C06FEF7FEFC4010E94D3
:10098000EF056C011068510113FD1CC006C080E228
:1009900090E0B3010E940506EA948E2D90E0C816FF
:1009A000D906A8F30FC0F40117FD859117FF8191B7
:1009B0004F0190E0B3010E940506E110EA9408940B
:1009C000C108D108C114D10471F7E7C0843611F011
:1009D000893651F5F50117FF07C080819181A28109
:1009E000B38124E030E008C080819181AA2797FD7F
:1009F000A095BA2F22E030E0A20EB31E012F0F7691
:100A0000B7FF08C0B095A095909581959F4FAF4FC7
:100A1000BF4F0068BC01CD01A2012AE030E00E9476
:100A20003106D82ED4183FC0853721F41F7E2AE026
:100A300030E020C0197F8F36A9F0803720F4883548
:100A400009F0AEC00BC0803721F0883709F0A8C08C
:100A500001C0106114FF09C0146007C014FF08C072
:100A6000166006C028E030E005C020E130E002C09A
:100A700020E132E0F50117FF07C0608171818281BA
:100A8000938144E050E006C06081718180E090E095
:100A900042E050E0A40EB51EA2010E943106D82EFD
:100AA000D418012F0F7706FF09C00E7FDF1430F432
:100AB00004FF06C002FD04C00F7E02C01D2D01C050
:100AC0001F2D802F90E004FF0CC0FE01ED0DF11DE5
:100AD0002081203311F4097E09C002FF06C01E5F89
:100AE00005C086789070009709F01F5F802E9924CA
:100AF00003FD12C000FF0DC0FD2C1E1550F4FE0CAE
:100B0000F11A1E2D06C080E290E0B3010E94050696
:100B10001F5F1E15C0F304C01E1510F4E11A01C0BA
:100B2000EE2484FE0FC080E390E0B3010E9405062E
:100B300082FE1FC081FE03C088E590E010C088E7F8
:100B400090E00DC0C40186789070009791F081FC10
:100B500002C080E201C08BE207FD8DE290E0B301AC
:100B60000E94050606C080E390E0B3010E940506DE
:100B7000FA94DF14C0F3DA94F201ED0DF11D8081D7
:100B800090E0B3010E940506DD20A9F706C080E2CF
:100B900090E0B3010E940506EA94EE20C1F740CE32
:100BA000F3018681978102C08FEF9FEF2D960FB6DC
:100BB000F894DEBF0FBECDBFDF91CF911F910F9193
:100BC000FF90EF90DF90CF90BF90AF909F908F906D
:100BD0007F906F905F904F903F902F900895FC0111
:100BE0000590615070400110D8F7809590958E0F58
:100BF0009F1F0895FC016150704001900110D8F7CB
:100C0000809590958E0F9F1F08950F931F93CF93FC
:100C1000DF938C01EB018B8181FF1BC082FF0DC034
:100C20002E813F818C819D812817390764F4E881EA
:100C3000F9810193F983E88306C0E885F985802F5F
:100C40000995009731F48E819F8101969F838E8351
:100C500002C00FEF1FEFC801DF91CF911F910F91DD
:100C60000895FA01AA27283051F1203181F1E89442
:100C70006F936E7F6E5F7F4F8F4F9F4FAF4FB1E08F
:100C80003ED0B4E03CD0670F781F891F9A1FA11D8A
:100C9000680F791F8A1F911DA11D6A0F711D811D8B
:100CA000911DA11D20D009F468943F912AE0269F50
:100CB00011243019305D3193DEF6CF010895462FAF
:100CC0004770405D4193B3E00FD0C9F7F6CF462F90
:100CD0004F70405D4A3318F0495D31FD40524193F9
:100CE00002D0A9F7EACFB4E0A695979587957795B6
:100CF0006795BA95C9F700976105710508959B013D
:100D0000AC010A2E06945795479537952795BA95C5
:100D1000C9F7620F731F841F951FA01D0895F894D3
:020D2000FFCF03
:100D2200DC05F8A7436F756E743A2025640A2044E7
:0E0D32006972656374696F6E3A20256400C0B3
:00000001FF
