:100000000C9487000C94A6000C94A6000C94A600F7
:100010000C94A6000C94A6000C94A6000C94A600C8
:100020000C94A6000C94B7030C94A6000C941E022A
:100030000C94A6000C94A6000C9447020C94A60005
:100040000C94A6000C94A6000C94A6000C94A60098
:100050000C94A6000C94A6000C94A6000C94A60088
:100060000C94A6000C94A6000C94A6000C94A60078
:100070000C94A6000C94A6000C94A6000C94A60068
:100080000C94A6000C94A6000C94A60007634236BC
:10009000B79BD8A71A39685618AEBAAB558C1D3C19
:1000A000B7CC5763BD6DEDFD753EF6177231BF00DD
:1000B0000000803F08000000BE922449123EABAA17
:1000C000AA2ABECDCCCC4C3E00000080BEABAAAA72
:1000D000AA3E00000000BF000000803F00000000BA
:1000E00000084178D3BB4387D1133D190E3CC3BDF3
:1000F0004282AD2B3E68EC8276BED98FE1A93E4CA0
:1001000080EFFFBE01C4FF7F3F000000000011240C
:100110001FBECFEFD0E1DEBFCDBF11E0A0E0B1E068
:10012000ECE6F6E100E00BBF02C007900D92A034B0
:10013000B107D9F711E0A0E4B1E001C01D92A939DF
:10014000B107E1F70E9419030C94340B0C940000E2
:1001500082EC87B987E886B90895369A3699FECF3A
:1001600084B195B184B195B108950E94AD00BC01F0
:1001700080E090E00E9434052FE23DED44E95FEB22
:100180000E942506462F572F682F792FCB01BA01E1
:1001900020E034E048EE56E40E94C2050E940805C3
:1001A000862F972F0895DE9A90E00E949F03DE9895
:1001B0008BB3807F8BBB0895CF93C82FDC988BB314
:1001C0009C2F92959F70892B8BBB82E00E94D3005D
:1001D0008BB3CF70C82BCBBB82E00E94D300DC9ADC
:1001E000CF91089581E00E94DC0081E090E00E94C0
:1001F0009F03089582E00E94DC0008958FEF8ABB80
:1002000083E08BBBDE9A81E090E00E949F03DE9842
:1002100085E090E00E949F03DE9A81E090E00E94DA
:100220009F03DE98DE9A81E090E00E949F03DE98B3
:1002300082E08BBB81E00E94D3008BB38BBB81E05B
:100240000E94D3008BB38E608BBB81E00E94D300F1
:100250008BB38BBB81E00E94D3008BB386608BBBDA
:1002600081E00E94D3008BB38BBB81E00E94D3005E
:10027000D89A81E00E94D300DC9A0E94FA00089587
:1002800080EC0E94DC00089584E90E94DC0008955F
:1002900084ED0E94DC000895883618F480680E947E
:1002A000DC00089588E10E94DC000895CF93C82FF8
:1002B0008BB39C2F92959F70892B8BBB81E00E9402
:1002C000D3008BB3CF70C82BCBBB81E00E94D3008F
:1002D000CF910895EF92FF920F931F93CF93DF93E7
:1002E000E82FF92FEF0109900020E9F72197CE1BA5
:1002F000DF0B1C161D0674F4E82EF92E00E010E04A
:10030000F70181917F010E9456010F5F1F4FC017B7
:10031000D107B1F7DF91CF911F910F91FF90EF902F
:100320000895CF92DF92EF92FF920F931F93CF9396
:10033000DF93CDB7DEB7C155D0400FB6F894DEBF1E
:100340000FBECDBFFE01E45AFF4F41915191CE0146
:10035000019661E570E02E2F3F2F0E94550880E442
:1003600091E0BE016F5F7F4F0E941608282F392F42
:100370002115310509F448C080E491E0BE016F5FAA
:100380007F4F0E941F080E94F2006E010894C11C5A
:10039000D11C00E010E00F2EF4E1EF2EFF24F02D31
:1003A0002BC08A3051F4C801B7010E94EF079701B2
:1003B000281B390B020F131F04C00E9456010F5F48
:1003C0001F4FC801B7010E94EF070097A9F4C801A9
:1003D000B7010E94EF076230710549F06330710583
:1003E00049F06130710541F40E94400105C00E944E
:1003F000440102C00E944801F60181916F018823E7
:1004000019F0003511056CF2CF5ADF4F0FB6F89492
:10041000DEBF0FBECDBFDF91CF911F910F91FF9037
:10042000EF90DF90CF9008958091920108951092FF
:1004300092011FBC82E08EBD789408951F920F92A6
:100440000FB60F9211248F939F93F89486B597B5AA
:100450000EB406FE08C090939601809395018EB568
:100460008F7B8EBD09C0909394018093930110926D
:10047000910187B78F7D87BF86B7806286BF7894EA
:100480009F918F910F900FBE0F901F9018951F9204
:100490000F920FB60F9211248F93809192018F5F6C
:1004A000809392018F910F900FBE0F901F9018951F
:1004B0008C9A949A81E090E00E949F0394988C9883
:1004C0001DBC1CBC86B7806286BF8EB580648EBDA5
:1004D0008EB582608EBD87B7806287BF81E08093D2
:1004E0009101809193019091940120919501309117
:1004F0009601821B930B08958C9A949A81E090E068
:100500000E949F0394988C981DBC1CBC86B7806287
:1005100086BF8EB580648EBD8EB582608EBD87B776
:10052000806287BF81E080939101FFCF0E943405F4
:1005300020E030ED44E858E40E94C20520E034E2B7
:1005400044EF5BE40E94A0040E940805089581E244
:1005500090E008959093900089B988E18AB98EE07F
:100560008093950082E08BB908955D9BFECF8CB996
:100570000895EF92FF920F931F93CF93DF93F82E7E
:10058000E92E082F192FC0E0D0E006C0F8018191B4
:100590008F010E94B5022196EF2DFE2DDF010D90F7
:1005A0000020E9F71197AE1BBF0BCA17DB0770F3EA
:1005B000DF91CF911F910F91FF90EF9008955F9B76
:1005C000FECF8CB1089580910201909103010197B3
:1005D000909387008093860083E280938B008AE16A
:1005E00080938A0080E480938C00149A0895282FC9
:1005F000392FC901880F991F880F991F9C01220F5D
:10060000331F220F331F820F931F8D579C4F9093E0
:1006100085008093840088EC90E00E949F030895F9
:100620008458934064E170E00E94EF07862F972F73
:100630000895CF92DF92EF92FF920F931F93CF9383
:10064000DF930E94A8000E94E3020E94170260E06C
:1006500071EE80E090E00E94A7020E94AA0280E072
:1006600090E00E94F702C0E0D0E004E011E00F2E1D
:10067000F4E3CF2EF1E0DF2EF02DC8010E94B90285
:100680000E94B5007C010E945802BC0180E090E00D
:100690000E949602DC01CB012DB73EB72C503040B2
:1006A0000FB6F8943EBF0FBE2DBF2F5F3F4FEDB783
:1006B000FEB712830183F901D382C282D583C4833A
:1006C000F782E68280879187A287B3870E942608F7
:1006D0002DB73EB7245F3F4F0FB6F8943EBF0FBE15
:1006E0002DBFCE010E94F7022296C63BD10529F606
:1006F00080E090E0DF91CF911F910F91FF90EF90FC
:10070000DF90CF900895109298011092970188235E
:1007100031F48BE085BD87B7806887BF07C0813023
:1007200029F489E085BD87B7806887BF78940895EC
:1007300087B78F7787BF85B58F7785BD0895CF93AE
:10074000DF93EC018AEF83BD10929801109297011C
:1007500080E00E94830380919701909198018C170B
:100760009D07C8F30E949803DF91CF9108951F92CF
:100770000F920FB60F9211248F939F938091970140
:1007800090919801019690939801809397019F9181
:100790008F910F900FBE0F901F90189584B3807C9F
:1007A00084BB85B38F6385BB089583B390E08F735B
:1007B000907087339105B1F0883391053CF48F3107
:1007C000910571F08F329105A9F416C08D33910512
:1007D00069F08E33910561F08B33910559F404C0B3
:1007E00086E3089584E3089583E3089582E30895FA
:1007F00081E3089580E3089585E3089584B38F73BA
:1008000084BB85B3806C85BB089593B3907C809145
:100810003F01803C39F4903839F081E0903429F080
:1008200080E003C080E001C08FEF90933F01089506
:1008300082B1806F82B983B18F7883B982E090E012
:100840000E949F0383B18F7083B90895BF92CF92A6
:10085000DF92EF92FF920F931F93CF93DF937C0170
:100860006130710589F5C3B1181619060CF05EC028
:10087000C295CF7000E010E0DD246894D1F8CC245C
:100880006894C2F8D1E0BB246894B3F8C13031F069
:10089000C23031F0C43031F4CB2D05C0CD2D03C0B2
:1008A000CC2D01C0CD2F83B19C2F9295907F8F705E
:1008B000892B83B982E090E00E949F030F5F1F4F56
:1008C0000E151F0519F732C08FEF6F3F780771F5CE
:1008D000C3B11E141F0454F5C295CF7000E010E0A0
:1008E000DD246894D3F8CC24C394D4E0BB2468946A
:1008F000B1F8C13031F0C23031F0C43031F4CB2D19
:1009000005C0CD2D03C0CC2D01C0CD2F83B19C2FB0
:100910009295907F8F70892B83B982E090E00E943E
:100920009F030F5F1F4F0E151F0519F7DF91CF9122
:100930001F910F91FF90EF90DF90CF90BF9008959F
:100940000CD0E6C0DED040F0D5D030F021F45F3FCF
:1009500019F0C7C0511110C1CAC0EBD098F3992348
:10096000C9F35523B1F3951B550BBB27AA27621773
:100970007307840738F09F5F5F4F220F331F441FB8
:10098000AA1FA9F333D00E2E3AF0E0E830D09150F0
:100990005040E695001CCAF729D0FE2F27D0660FDD
:1009A000771F881FBB1F261737074807AB07B0E81C
:1009B00009F0BB0B802DBF01FF2793585F4F2AF032
:1009C0009E3F510568F08DC0D7C05F3FECF3983E65
:1009D000DCF3869577956795B795F7959F5FC9F78F
:1009E000880F911D9695879597F90895E1E0660F18
:1009F000771F881FBB1F621773078407BA0720F091
:100A0000621B730B840BBA0BEE1F88F7E0950895F9
:100A100098D088F09F5790F0B92F9927B751A0F040
:100A2000D1F0660F771F881F991F1AF0BA95C9F782
:100A300012C0B13081F09FD0B1E008959CC0672F03
:100A4000782F8827B85F39F0B93FCCF38695779532
:100A50006795B395D9F73EF490958095709561951B
:100A60007F4F8F4F9F4F0895E89409C097FB3EF446
:100A700090958095709561957F4F8F4F9F4F9923EB
:100A8000A9F0F92F96E9BB279395F6958795779569
:100A90006795B795F111F8CFFAF4BB0F11F460FF29
:100AA0001BC06F5F7F4F8F4F9F4F16C0882311F081
:100AB00096E911C0772321F09EE8872F762F05C095
:100AC000662371F096E8862F70E060E02AF09A9530
:100AD000660F771F881FDAF7880F9695879597F925
:100AE000089597F99F6780E870E060E008959FEFB0
:100AF00080EC089500240A941616170618060906B5
:100B0000089500240A941216130614060506089583
:100B1000092E0394000C11F4882352F0BB0F40F40B
:100B2000BF2B11F460FF04C06F5F7F4F8F4F9F4F4B
:100B3000089557FD9058440F551F59F05F3F71F0CD
:100B40004795880F97FB991F61F09F3F79F0879534
:100B50000895121613061406551FF2CF4695F1DFBD
:100B600008C0161617061806991FF1CF869571054D
:100B7000610508940895E894BB2766277727CB0181
:100B800097F908950BD0C4CFB5DF28F0BADF18F07D
:100B9000952309F0A6CFABCF1124EECFCADFA0F387
:100BA000959FD1F3950F50E0551F629FF001729F02
:100BB000BB27F00DB11D639FAA27F00DB11DAA1F21
:100BC000649F6627B00DA11D661F829F2227B00D6E
:100BD000A11D621F739FB00DA11D621F839FA00DF9
:100BE000611D221F749F3327A00D611D231F849F49
:100BF000600D211D822F762F6A2F11249F575040A0
:100C00008AF0E1F088234AF0EE0FFF1FBB1F661F3A
:100C1000771F881F91505040A9F79E3F510570F0F3
:100C200060CFAACF5F3FECF3983EDCF386957795D3
:100C30006795B795F795E7959F5FC1F7FE2B880FEE
:100C4000911D9695879597F90895FA01EE0FFF1F6C
:100C500030962105310599F16115710561F48038EF
:100C6000BFE39B0749F168949038810561F08038B3
:100C7000BFEF9B0741F0992342F5FF3FE1053105A6
:100C8000210511F1E8940894E795D901AA2329F4E4
:100C9000AB2FBE2FF85FD0F310C0FF5F70F4A695A6
:100CA000E0F7F73950F019F0FF3A38F49F779F9347
:100CB0000CD00F9007FC905808953EF018CF60E0DC
:100CC00070E080E89FE308954FE79F775F934F932D
:100CD0003F932F939ED02F913F914F915F9152DF81
:100CE00005C019F40EF0FDCE46CF01CF2ADFC8F3C0
:100CF0009638C0F707F80F92E8942BE33AEA48EBEE
:100D00005FE74EDF0F920F920F924DB75EB70F92D3
:100D1000C0D0ECE8F0E016D04F915F91EF91FF91D9
:100D2000E595EE1FFF1F49F0FE57E0684427EE0FE0
:100D3000441FFA95E1F74195550B32D00F9007FE0D
:100D400026C00895DF93CF931F930F93FF92EF92E6
:100D5000DF927B018C01689405C0DA2EEF011EDF63
:100D6000FE01E894A5912591359145915591AEF3F9
:100D7000EF01D4D0FE019701A801DA9479F7DF9052
:100D8000EF90FF900F911F91CF91DF9108959B01FC
:100D9000AC0160E070E080E89FE3D2CDA2CE11C14B
:100DA000D0DEE8F39923D9F3940F511DBBF3915092
:100DB000504094F059F0882332F0660F771F881F57
:100DC00091505040C1F79E3F510544F7880F911D47
:100DD0009695879597F908955F3FACF0983E9CF003
:100DE000BB27869577956795B79508F4B16093957D
:100DF000C1F7BB0F58F711F460FFE8CF6F5F7F4F6B
:100E00008F4F9F4FE3CFB8CE0EF0DBC070CE68940B
:100E100068CE97DEC8F39923D1F3C6F3DF93CF935F
:100E20001F930F93FF92C92FDD2788232AF0219764
:100E3000660F771F881FDAF720E030E040E85FEBAD
:100E40009FE3883920F0803E30F021968F7755D08F
:100E5000E4EBF0E003C051D0E1EEF0E073DF8B0192
:100E6000BE01EC01FB2E6F5771097595771F880B3A
:100E7000990BFCDD28E132E741E35FE38FDEAF2D24
:100E80009801AE01FF900F911F91CF91DF9146D055
:100E90003FCEFA01DC01AA0FBB1F9B01AC01BF577B
:100EA00028F422273327442750781FC0B75188F4ED
:100EB000AB2F0024469537952795011CA395D2F3B7
:100EC000002069F0220F331F441FB395DAF30DD0D1
:100ED00013C061307105A0E88A07B94630F49B0160
:100EE000AC016627772788279078309621F02083F9
:100EF00031834283538308955058BB27AA270ED0CD
:100F000007CEF8DD30F0FDDD20F031F49F3F11F425
:100F10001EF4EDCD0EF4E095E7FBE3CDE92F09DEFD
:100F200080F3BA17620773078407950718F071F406
:100F30009EF521CE0EF4E0950B2EBA2FA02D0B01BD
:100F4000B90190010C01CA01A0011124FF27591B0E
:100F500099F0593F50F4503E68F11A16F040A22F14
:100F6000232F342F4427585FF3CF46953795279585
:100F7000A795F0405395C9F77EF41F16BA0B620B84
:100F8000730B840BBAF09150A1F0FF0FBB1F661FCB
:100F9000771F881FC2F70EC0BA0F621F731F841F0E
:100FA00048F4879577956795B795F7959E3F08F034
:100FB000B3CF9395880F08F09927EE0F97958795F3
:100FC00008959F3F31F0915020F48795779567956C
:100FD000B795880F911D9695879597F9089597FB7A
:100FE000092E07260AD077FD04D00CD006D00020A9
:100FF0001AF4709561957F4F0895F6F79095819555
:101000009F4F0895AA1BBB1B51E107C0AA1FBB1F1E
:10101000A617B70710F0A61BB70B881F991F5A9584
:10102000A9F780959095BC01CD010895FB01DC01E5
:101030008D91019080190110D9F3990B0895FB014E
:10104000DC0101900D920020E1F708950F931F93AA
:10105000CF93DF93CDB7DEB72E970FB6F894DEBFF0
:101060000FBECDBF0D891E8986E08C831A8309834C
:101070008FEF9FE79E838D83AE01475E5F4FCE016A
:1010800001966F89788D0E948D08EF81F885E00FB9
:10109000F11F10822E960FB6F894DEBF0FBECDBFA3
:1010A000DF91CF911F910F9108950F931F93CF93CD
:1010B000DF93CDB7DEB72E970FB6F894DEBF0FBE25
:1010C000CDBF8C0186E08C831A83098377FF02C031
:1010D00060E070E8615070407E836D83CE010196C0
:1010E000BA01A9010E948D084D815E8157FD0AC099
:1010F0002F813885421753070CF49A01020F131FF2
:10110000F80110822E960FB6F894DEBF0FBECDBF49
:10111000DF91CF911F910F9108952F923F924F929F
:101120005F926F927F928F929F92AF92BF92CF9277
:10113000DF92EF92FF920F931F93CF93DF93CDB780
:10114000DEB72D970FB6F894DEBF0FBECDBF3C01C2
:101150007D876C875A01FC0117821682838181FF8B
:10116000C8C12E010894411C511CF3019381EC85E8
:10117000FD8593FD859193FF8191FD87EC87882301
:1011800009F4B3C1853241F493FD859193FF8191B8
:10119000FD87EC87853229F490E0B3010E94AA0A0A
:1011A000E4CFFF24EE2410E01032B0F48B3269F06B
:1011B0008C3228F4803251F0833271F40BC08D32BE
:1011C00039F0803349F411602CC01260146029C0DA
:1011D000186027C0106125C017FD2EC0282F20538E
:1011E0002A3098F416FF08C08F2D880FF82EFF0CB8
:1011F000FF0CF80EF20E15C08E2D880FE82EEE0CA7
:10120000EE0CE80EE20E10620CC08E3221F416FDD8
:101210006CC1106406C08C3611F4106802C08836A8
:1012200059F4EC85FD8593FD859193FF8191FD87B0
:10123000EC87882309F0B8CF982F9554933018F095
:101240009052933038F424E030E0A20EB31E3FE316
:1012500039830FC0833631F0833781F0833509F04D
:101260005AC022C0F5018081898322E030E0A20EBD
:10127000B31E21E0C22ED12C420114C092E0292ECF
:10128000312C2A0C3B1CF5018080918016FF03C095
:101290006F2D70E002C06FEF7FEFC4010E949F0AC4
:1012A0006C0151011F7715C082E0282E312C2A0CC9
:1012B0003B1CF5018080918016FF03C06F2D70E00C
:1012C00002C06FEF7FEFC4010E94940A6C011068A6
:1012D000510113FD1CC006C080E290E0B3010E94E2
:1012E000AA0AEA948E2D90E0C816D906A8F30FC07A
:1012F000F40117FD859117FF81914F0190E0B30133
:101300000E94AA0AE110EA940894C108D108C11405
:10131000D10471F7E7C0843611F0893651F5F50133
:1013200017FF07C080819181A281B38124E030E062
:1013300008C080819181AA2797FDA095BA2F22E04D
:1013400030E0A20EB31E012F0F76B7FF08C0B09594
:10135000A095909581959F4FAF4FBF4F0068BC01FE
:10136000CD01A2012AE030E00E94D60AD82ED4187E
:101370003FC0853721F41F7E2AE030E020C0197F6E
:101380008F36A9F0803720F4883509F0AEC00BC045
:10139000803721F0883709F0A8C001C0106114FF20
:1013A00009C0146007C014FF08C0166006C028E01A
:1013B00030E005C020E130E002C020E132E0F5017C
:1013C00017FF07C0608171818281938144E050E002
:1013D00006C06081718180E090E042E050E0A40EA0
:1013E000B51EA2010E94D60AD82ED418012F0F775D
:1013F00006FF09C00E7FDF1430F404FF06C002FDB3
:1014000004C00F7E02C01D2D01C01F2D802F90E053
:1014100004FF0CC0FE01ED0DF11D2081203311F4FD
:10142000097E09C002FF06C01E5F05C08678907065
:10143000009709F01F5F802E992403FD12C000FF62
:101440000DC0FD2C1E1550F4FE0CF11A1E2D06C009
:1014500080E290E0B3010E94AA0A1F5F1E15C0F34C
:1014600004C01E1510F4E11A01C0EE2484FE0FC062
:1014700080E390E0B3010E94AA0A82FE1FC081FEB1
:1014800003C088E590E010C088E790E00DC0C4017B
:1014900086789070009791F081FC02C080E201C0D4
:1014A0008BE207FD8DE290E0B3010E94AA0A06C01C
:1014B00080E390E0B3010E94AA0AFA94DF14C0F31B
:1014C000DA94F201ED0DF11D808190E0B3010E94EC
:1014D000AA0ADD20A9F706C080E290E0B3010E94CD
:1014E000AA0AEA94EE20C1F740CEF30186819781E3
:1014F00002C08FEF9FEF2D960FB6F894DEBF0FBEA0
:10150000CDBFDF91CF911F910F91FF90EF90DF90B2
:10151000CF90BF90AF909F908F907F906F905F9093
:101520004F903F902F900895FC01059061507040BE
:101530000110D8F7809590958E0F9F1F0895FC019C
:101540006150704001900110D8F7809590958E0FF2
:101550009F1F08950F931F93CF93DF938C01EB018F
:101560008B8181FF1BC082FF0DC02E813F818C814A
:101570009D812817390764F4E881F9810193F98383
:10158000E88306C0E885F985802F0995009731F436
:101590008E819F8101969F838E8302C00FEF1FEF84
:1015A000C801DF91CF911F910F910895FA01AA27E9
:1015B000283051F1203181F1E8946F936E7F6E5F96
:1015C0007F4F8F4F9F4FAF4FB1E03ED0B4E03CD044
:1015D000670F781F891F9A1FA11D680F791F8A1F27
:1015E000911DA11D6A0F711D811D911DA11D20D08E
:1015F00009F468943F912AE0269F11243019305D48
:101600003193DEF6CF010895462F4770405D419338
:10161000B3E00FD0C9F7F6CF462F4F70405D4A3385
:1016200018F0495D31FD4052419302D0A9F7EACF4D
:10163000B4E0A6959795879577956795BA95C9F77C
:1016400000976105710508959B01AC010A2E06946F
:101650005795479537952795BA95C9F7620F731F28
:0C166000841F951FA01D0895F894FFCF73
:10166C00DC05F8A744656772656573094952204427
:10167C00697374616E63652028636D2909536F6EFD
:10168C0061722044697374616E63652028636D29EF
:10169C000A0A0D0025640925640925640A0D00C099
:00000001FF
