:100000000C9446000C9465000C9465000C946500FB
:100010000C9465000C9465000C9465000C946500CC
:100020000C9465000C948F030C9465000C9465008F
:100030000C9465000C9465000C9465000C946500AC
:100040000C9465000C9465000C9465000C9465009C
:100050000C9465000C9465000C9465000C9465008C
:100060000C9465000C9465000C9465000C9465007C
:100070000C9465000C9465000C9465000C9465006C
:100080000C9465000C9465000C94650011241FBE4F
:10009000CFEFD0E1DEBFCDBF11E0A0E0B1E0E8ECF2
:1000A000F1E100E00BBF02C007900D92A632B1074C
:1000B000D9F711E0A6E2B1E001C01D92AD37B1075A
:1000C000E1F70E9421030C94E2080C940000DE9AF0
:1000D00090E00E947703DE988BB3807F8BBB0895FE
:1000E000CF93C82FDC988BB39C2F92959F70892B50
:1000F0008BBB82E00E9467008BB3CF70C82BCBBB59
:1001000082E00E946700DC9ACF91089581E00E940E
:10011000700081E090E00E947703089582E00E94E1
:10012000700008958FEF8ABB83E08BBBDE9A81E07D
:1001300090E00E947703DE9885E090E00E947703CC
:10014000DE9A81E090E00E947703DE98DE9A81E0FB
:1001500090E00E947703DE9882E08BBB81E00E94F2
:1001600067008BB38BBB81E00E9467008BB38E600E
:100170008BBB81E00E9467008BB38BBB81E00E9448
:1001800067008BB386608BBB81E00E9467008BB3F6
:100190008BBB81E00E946700D89A81E00E946700D3
:1001A000DC9A0E948E00089580EC0E9470000895F1
:1001B00084E90E947000089584ED0E947000089503
:1001C000883618F480680E947000089588E10E94C3
:1001D00070000895CF93C82F8BB39C2F92959F707A
:1001E000892B8BBB81E00E9467008BB3CF70C82B3B
:1001F000CBBB81E00E946700CF910895EF92FF9200
:100200000F931F93CF93DF93E82FF92FEF010990FE
:100210000020E9F72197CE1BDF0B1C161D0674F496
:10022000E82EF92E00E010E0F70181917F010E9495
:10023000EA000F5F1F4FC017D107B1F7DF91CF91D1
:100240001F910F91FF90EF900895CF92DF92EF9260
:10025000FF920F931F93CF93DF93CDB7DEB7C155B6
:10026000D0400FB6F894DEBF0FBECDBFFE01E45AFA
:10027000FF4F41915191CE01019661E570E02E2F23
:100280003F2F0E94030686E291E0BE016F5F7F4F21
:100290000E94F305282F392F2115310509F448C094
:1002A00086E291E0BE016F5F7F4F0E94FC050E94D5
:1002B00086006E010894C11CD11C00E010E00F2ED6
:1002C000F4E1EF2EFF24F02D2BC08A3051F4C80149
:1002D000B7010E9478049701281B390B020F131FE6
:1002E00004C00E94EA000F5F1F4FC801B7010E94BF
:1002F00078040097A9F4C801B7010E94780462301D
:10030000710549F06330710549F06130710541F4C0
:100310000E94D40005C00E94D80002C00E94DC00E8
:10032000F60181916F01882319F0003511056CF2F7
:10033000CF5ADF4F0FB6F894DEBF0FBECDBFDF91AF
:10034000CF911F910F91FF90EF90DF90CF90089584
:1003500081E090E064E370E00E949F0408950E94B1
:1003600053050895EBE9F0E0908195FFFDCF809370
:100370009C00089588E80E94B20181E00E94B201C9
:10038000BF98C79AB79BFECF0895CF93C82F8DE82B
:100390000E94B2018C2F0E94B201CF910895BF92AA
:1003A000CF92DF92EF92FF920F931F93CF93DF9341
:1003B000082F6B01C42FE52ED22FB32E8CE80E949C
:1003C000B201802F0E94B2018C2D0E94B2011C1438
:1003D0001D04A4F40C2F1E2DED2EFB2CC0E0D0E04C
:1003E000F80181918F010E94B201F70181917F0193
:1003F0000E94B2012196CC15DD0591F7DF91CF91D6
:100400001F910F91FF90EF90DF90CF90BF900895D4
:100410000F931F93CF93DF93182F092FC62FD72F3A
:1004200081E90E94B201802F0E94B201812F0E94B7
:10043000B2018D2F0E94B2018C2F0E94B201DF9178
:10044000CF911F910F9108950F931F93CF93DF9337
:10045000182F062FD42FC22F8BE80E94B201002341
:1004600039F081E090E0112329F480E090E002C0AF
:1004700080E090E00E94B2018D2F0E94B2018C2F8B
:100480000E94B201DF91CF911F910F910895EBE986
:10049000F0E080818823ECF780919C000895EF9232
:1004A000FF920F931F93CF93DF937C0180919B006A
:1004B000882344F4ACE9B0E0EBE9F0E08C91808172
:1004C0008823E4F38EE80E94B20186E00E94B20124
:1004D000E701E49687010E944702F80181938F01AA
:1004E000EC17FD07C1F7F701948580E02585820FA1
:1004F000911D95878487968580E02785820F911DC1
:1005000097878687918980E02289820F911D928B3F
:10051000818B938980E02489820F911D948B838B3A
:10052000968980E02789820F911D978B868B908D0D
:1005300080E0218D820F911D918F808F928D80E0C0
:10054000238D820F911D938F828F948D80E0258D56
:10055000820F911D958F848F968D80E0278D820F5D
:10056000911D978F868F90A180E021A1820F911D10
:1005700091A380A392A180E023A1820F911D93A358
:1005800082A382A590E031A520E0280F391F36A371
:1005900025A330A920E0820F931F95A784A792A9D5
:1005A00080E023A9820F911D97A786A794A980E0D8
:1005B00025A9820F911D91AB80AB96A980E027A958
:1005C000820F911D93AB82AB85E090E00E94770390
:1005D000DF91CF911F910F91FF90EF9008950F93AE
:1005E0001F93CF93DF938C01C9E9D0E080E188832A
:1005F00088E180939A0086E080939D0080E80E94C5
:10060000B20181E80E94B20188E00E94B20184E652
:1006100090E00E94770381E2888384E80E94B2011F
:1006200081E061E047E02FEF0E942402C8010E94B0
:100630004F02C8010E944F02DF91CF911F910F918D
:1006400008950E9492000E94A6030E94D6030E9471
:10065000F003C0E0D0E00F2EF0E0EF2EF1E0FF2E2F
:10066000F02D0E94AD03182F0E94DD03682F77271D
:1006700067FD7095C60FD71F8AE090E00E94FE03C9
:1006800000D000D000D0EDB7FEB73196ADB7BEB701
:100690001296FC92EE92119712831382D583C48333
:1006A0000E9425018DB79EB706960FB6F8949EBF9F
:1006B0000FBE8DBFD6CF109278011092770188239C
:1006C00031F48BE085BD87B7806887BF07C0813074
:1006D00029F489E085BD87B7806887BF789408953D
:1006E00087B78F7787BF85B58F7785BD0895CF93FF
:1006F000DF93EC018AEF83BD1092780110927701AD
:1007000080E00E945B0380917701909178018C17C3
:100710009D07C8F30E947003DF91CF9108951F9247
:100720000F920FB60F9211248F939F9380917701B0
:1007300090917801019690937801809377019F9131
:100740008F910F900FBE0F901F90189584B3807CEF
:1007500084BB85B38F6385BB089583B390E08F73AB
:10076000907087339105B1F0883391053CF48F3157
:10077000910571F08F329105A9F416C08D33910562
:1007800069F08E33910561F08B33910559F404C003
:1007900086E3089584E3089583E3089582E308954A
:1007A00081E3089580E3089585E3089584B38F730A
:1007B00084BB85B3806C85BB089593B3907C809196
:1007C0001E01803C39F4903839F081E0903429F0F2
:1007D00080E003C080E001C08FEF90931E01089578
:1007E00082B1806F82B983B18F7883B982E090E063
:1007F0000E94770383B18F7083B90895BF92CF921F
:10080000DF92EF92FF920F931F93CF93DF937C01C0
:100810006130710589F5C3B1181619060CF05EC078
:10082000C295CF7000E010E0DD246894D1F8CC24AC
:100830006894C2F8D1E0BB246894B3F8C13031F0B9
:10084000C23031F0C43031F4CB2D05C0CD2D03C002
:10085000CC2D01C0CD2F83B19C2F9295907F8F70AE
:10086000892B83B982E090E00E9477030F5F1F4FCE
:100870000E151F0519F732C08FEF6F3F780771F51E
:10088000C3B11E141F0454F5C295CF7000E010E0F0
:10089000DD246894D3F8CC24C394D4E0BB246894BA
:1008A000B1F8C13031F0C23031F0C43031F4CB2D69
:1008B00005C0CD2D03C0CC2D01C0CD2F83B19C2F01
:1008C0009295907F8F70892B83B982E090E00E948F
:1008D00077030F5F1F4F0E151F0519F7DF91CF919B
:1008E0001F910F91FF90EF90DF90CF90BF900895F0
:1008F00097FB092E07260AD077FD04D00CD006D02E
:1009000000201AF4709561957F4F0895F6F7909541
:1009100081959F4F0895AA1BBB1B51E107C0AA1FD9
:10092000BB1FA617B70710F0A61BB70B881F991F90
:100930005A95A9F780959095BC01CD0108950F9324
:100940001F93CF93DF93689F8001699F100D789F5D
:10095000100D1124C8010E94BD04C82FD92F209763
:1009600031F08C2F60E070E0A8010E94EC05CE0110
:10097000DF91CF911F910F910895CF93DF93AC0139
:100980008230910510F442E050E0E0917B01F0915B
:100990007C0120E030E0A0E0B0E024C080819181C3
:1009A00084179507D0F08417950771F4828193819D
:1009B000109729F013969C938E9312972CC09093C6
:1009C0007C0180937B0127C02115310519F0821726
:1009D000930718F49C01BD01EF0192818381DF012F
:1009E000E92FF82F3097D1F621153105F9F0C9011B
:1009F000841B950B8430910580F48A819B8161155D
:100A0000710521F0FB019383828304C090937C01E4
:100A100080937B01FE01329642C0FE01E80FF91F70
:100A20004193519302979983888339C080917901CA
:100A300090917A01009741F48091210190912201D7
:100A400090937A018093790120911F0130912001C8
:100A50002115310541F42DB73EB7809123019091C6
:100A60002401281B390BE0917901F0917A01E217FA
:100A7000F30798F42E1B3F0B2417350770F0CA01BB
:100A800002962817390748F08E0F9F1F90937A011E
:100A9000809379014193519302C0E0E0F0E0CF01EF
:100AA000DF91CF9108950F931F93CF93DF939C0114
:100AB000009709F48CC0DC01129713961C921E92C9
:100AC000129760917B0170917C016115710589F429
:100AD0008D919C911197820F931F209179013091F4
:100AE0007A012817390769F5B0937A01A093790143
:100AF0006EC0FB0140E050E001C0FC01EA17FB07BB
:100B000030F482819381AF010097B9F71FC0E901EA
:100B10002297FB83EA8308811981C901800F911F05
:100B20008E179F0759F480819181800F911F029643
:100B300099838883828193819B838A8341155105A0
:100B400029F4B0937C01A0937B0141C0FA01B383E7
:100B5000A283C191D191EC0FFD1FAE17BF0781F4A5
:100B6000F901929182918C0F9D1F0296DA011196E4
:100B70009C938E938281938113969C938E9312976C
:100B8000E0E0F0E002C0FB01BC01DB0112968D91B8
:100B90009C9113970097B9F7CB0102962D913C9148
:100BA0001197820F931F2091790130917A012817B4
:100BB000390769F4309729F410927C0110927B0177
:100BC00002C01382128270937A0160937901DF91DF
:100BD000CF911F910F910895DC0101C06D93415099
:100BE0005040E0F70895FB01DC018D9101908019E0
:100BF0000110D9F3990B0895FB01DC0101900D92CE
:100C00000020E1F708950F931F93CF93DF93CDB7A3
:100C1000DEB72E970FB6F894DEBF0FBECDBF8C01A6
:100C200086E08C831A83098377FF02C060E070E856
:100C3000615070407E836D83CE010196BA01A90197
:100C40000E943B064D815E8157FD0AC02F81388589
:100C5000421753070CF49A01020F131FF801108278
:100C60002E960FB6F894DEBF0FBECDBFDF91CF91A9
:100C70001F910F9108952F923F924F925F926F9222
:100C80007F928F929F92AF92BF92CF92DF92EF921C
:100C9000FF920F931F93CF93DF93CDB7DEB72D97BE
:100CA0000FB6F894DEBF0FBECDBF3C017D876C87C9
:100CB0005A01FC0117821682838181FFC8C12E016F
:100CC0000894411C511CF3019381EC85FD8593FD33
:100CD000859193FF8191FD87EC87882309F4B3C147
:100CE000853241F493FD859193FF8191FD87EC87D7
:100CF000853229F490E0B3010E945808E4CFFF2424
:100D0000EE2410E01032B0F48B3269F08C3228F40B
:100D1000803251F0833271F40BC08D3239F0803360
:100D200049F411602CC01260146029C0186027C0FB
:100D3000106125C017FD2EC0282F20532A3098F4AB
:100D400016FF08C08F2D880FF82EFF0CFF0CF80E31
:100D5000F20E15C08E2D880FE82EEE0CEE0CE80E6C
:100D6000E20E10620CC08E3221F416FD6CC11064CC
:100D700006C08C3611F4106802C0883659F4EC8530
:100D8000FD8593FD859193FF8191FD87EC878823F5
:100D900009F0B8CF982F9554933018F090529330B3
:100DA00038F424E030E0A20EB31E3FE339830FC0D5
:100DB000833631F0833781F0833509F05AC022C081
:100DC000F5018081898322E030E0A20EB31E21E08C
:100DD000C22ED12C420114C092E0292E312C2A0CB3
:100DE0003B1CF5018080918016FF03C06F2D70E0E1
:100DF00002C06FEF7FEFC4010E944D086C015101EA
:100E00001F7715C082E0282E312C2A0C3B1CF501DF
:100E10008080918016FF03C06F2D70E002C06FEFDD
:100E20007FEFC4010E9442086C011068510113FD5C
:100E30001CC006C080E290E0B3010E945808EA940A
:100E40008E2D90E0C816D906A8F30FC0F40117FD47
:100E5000859117FF81914F0190E0B3010E945808DE
:100E6000E110EA940894C108D108C114D10471F7C3
:100E7000E7C0843611F0893651F5F50117FF07C038
:100E800080819181A281B38124E030E008C080811B
:100E90009181AA2797FDA095BA2F22E030E0A20EFB
:100EA000B31E012F0F76B7FF08C0B095A09590959F
:100EB00081959F4FAF4FBF4F0068BC01CD01A2018C
:100EC0002AE030E00E948408D82ED4183FC085372D
:100ED00021F41F7E2AE030E020C0197F8F36A9F070
:100EE000803720F4883509F0AEC00BC0803721F080
:100EF000883709F0A8C001C0106114FF09C0146050
:100F000007C014FF08C0166006C028E030E005C026
:100F100020E130E002C020E132E0F50117FF07C018
:100F2000608171818281938144E050E006C06081DC
:100F3000718180E090E042E050E0A40EB51EA20175
:100F40000E948408D82ED418012F0F7706FF09C0FD
:100F50000E7FDF1430F404FF06C002FD04C00F7ED4
:100F600002C01D2D01C01F2D802F90E004FF0CC07A
:100F7000FE01ED0DF11D2081203311F4097E09C021
:100F800002FF06C01E5F05C086789070009709F0CA
:100F90001F5F802E992403FD12C000FF0DC0FD2CA1
:100FA0001E1550F4FE0CF11A1E2D06C080E290E0D2
:100FB000B3010E9458081F5F1E15C0F304C01E1520
:100FC00010F4E11A01C0EE2484FE0FC080E390E02B
:100FD000B3010E94580882FE1FC081FE03C088E54D
:100FE00090E010C088E790E00DC0C4018678907052
:100FF000009791F081FC02C080E201C08BE207FD06
:101000008DE290E0B3010E94580806C080E390E0B2
:10101000B3010E945808FA94DF14C0F3DA94F20185
:10102000ED0DF11D808190E0B3010E945808DD2094
:10103000A9F706C080E290E0B3010E945808EA9444
:10104000EE20C1F740CEF3018681978102C08FEF79
:101050009FEF2D960FB6F894DEBF0FBECDBFDF9188
:10106000CF911F910F91FF90EF90DF90CF90BF90A5
:10107000AF909F908F907F906F905F904F903F9038
:101080002F900895FC010590615070400110D8F731
:10109000809590958E0F9F1F0895FC0161507040C0
:1010A00001900110D8F7809590958E0F9F1F08959D
:1010B0000F931F93CF93DF938C01EB018B8181FF03
:1010C0001BC082FF0DC02E813F818C819D8128171E
:1010D000390764F4E881F9810193F983E88306C054
:1010E000E885F985802F0995009731F48E819F81DD
:1010F00001969F838E8302C00FEF1FEFC801DF911F
:10110000CF911F910F910895FA01AA27283051F12C
:10111000203181F1E8946F936E7F6E5F7F4F8F4F28
:101120009F4FAF4FB1E03ED0B4E03CD0670F781F87
:10113000891F9A1FA11D680F791F8A1F911DA11D6C
:101140006A0F711D811D911DA11D20D009F46894A5
:101150003F912AE0269F11243019305D3193DEF64D
:10116000CF010895462F4770405D4193B3E00FD003
:10117000C9F7F6CF462F4F70405D4A3318F0495DEE
:1011800031FD4052419302D0A9F7EACFB4E0A695D1
:101190009795879577956795BA95C9F700976105F3
:1011A000710508959B01AC010A2E06945795479549
:1011B00037952795BA95C9F7620F731F841F951F3E
:0811C000A01D0895F894FFCF73
:1011C800427574746F6E3A202563202053686166F7
:1011D8007420456E636F6465723A20256400C00010
:0611E800007D0120000063
:00000001FF
