:100000000C9408010C9427010C9427010C942701EF
:100010000C9427010C9427010C9427010C942701C0
:100020000C9427010C9439030C9427010C9427019C
:100030000C9427010C9427010C9427010C942701A0
:100040000C9427010C9427010C9427010C94270190
:100050000C9427010C9427010C9427010C94270180
:100060000C9427010C9427010C9427010C94270170
:100070000C9427010C9427010C9427010C94270160
:100080000C9427010C9427010C9427010763423636
:10009000B79BD8A71A39685618AEBAAB558C1D3C19
:1000A000B7CC5763BD6DEDFD753EF6177231BF00DD
:1000B0000000803F08000000BE922449123EABAA17
:1000C000AA2ABECDCCCC4C3E00000080BEABAAAA72
:1000D000AA3E00000000BF000000803F00000000BA
:1000E00000084178D3BB4387D1133D190E3CC3BDF3
:1000F0004282AD2B3E68EC8276BED98FE1A93E4CA0
:1001000080EFFFBE01C4FF7F3F00000000006E6172
:100110006E00696E660000407A10F35A00A0724EBD
:1001200018090010A5D4E80000E87648170000E49C
:100130000B54020000CA9A3B000000E1F5050000E4
:1001400080969800000040420F000000A086010049
:100150000000102700000000E80300000000640019
:10016000000000000A000000000001000000000084
:100170002C76D888DC674F0823DFC1DFAE59E1B1A8
:10018000B796E5E3E453C63AE651997696E8E6C2B7
:100190008426EB898C9B62ED407C6FFCEFBC9C9FBE
:1001A00040F2BAA56FA5F490055A2AF75C936B6CE0
:1001B000F9676DC11BFCE0E40D47FEF520E6B500D4
:1001C000D0ED902E0300943577050080841E080042
:1001D00000204E0A000000C80C333333330F986EF2
:1001E00012831141EF8D2114893BE65516CFFEE6AF
:1001F000DB18D1844B381BF77C1D901DA4BBE42475
:10020000203284725E228100C9F124ECA1E53D27F1
:1002100011241FBECFEFD0E1DEBFCDBF11E0A0E0C3
:10022000B1E0ECEBF8E100E00BBF02C007900D92EB
:10023000AA30B107D9F711E0AAE0B1E001C01D92E0
:10024000AD35B107E1F70E9495020C945C0C0C945B
:10025000000082EC87B987E886B90895369A369906
:10026000FECF84B195B184B195B108950E942E015D
:10027000BC0180E090E00E946A042FE23DED44E979
:100280005FEB0E945B05462F572F682F792FCB011C
:10029000BA0120E034E048EE56E40E94F8040E94DF
:1002A0003E04862F972F0895DE9A90E00E94210346
:1002B000DE988BB3807F8BBB0895CF93C82FDC98DB
:1002C0008BB39C2F92959F70892B8BBB82E00E94F1
:1002D00054018BB3CF70C82BCBBB82E00E9454017A
:1002E000DC9ACF91089581E00E945D0181E090E069
:1002F0000E942103089582E00E945D0108958FEF1E
:100300008ABB83E08BBBDE9A81E090E00E942103F0
:10031000DE9885E090E00E942103DE9A81E090E083
:100320000E942103DE98DE9A81E090E00E94210382
:10033000DE9882E08BBB81E00E9454018BB38BBBC3
:1003400081E00E9454018BB38E608BBB81E00E94E0
:1003500054018BB38BBB81E00E9454018BB3866048
:100360008BBB81E00E9454018BB38BBB81E00E9468
:100370005401D89A81E00E945401DC9A0E947B01CA
:10038000089580EC0E945D01089584E90E945D015A
:10039000089584ED0E945D010895883618F4806800
:1003A0000E945D01089588E10E945D010895CF9348
:1003B000C82F8BB39C2F92959F70892B8BBB81E0AC
:1003C0000E9454018BB3CF70C82BCBBB81E00E943D
:1003D0005401CF910895EF92FF920F931F93CF9303
:1003E000DF93E82FF92FEF0109900020E9F721971B
:1003F000CE1BDF0B1C161D0674F4E82EF92E00E050
:1004000010E0F70181917F010E94D7010F5F1F4F1C
:10041000C017D107B1F7DF91CF911F910F91FF90D6
:10042000EF900895CF92DF92EF92FF920F931F9378
:10043000CF93DF93CDB7DEB7C155D0400FB6F89458
:10044000DEBF0FBECDBFFE01E45AFF4F4191519177
:10045000CE01019661E570E02E2F3F2F0E94C60B62
:100460008AE091E0BE016F5F7F4F0E947F0B282FD3
:10047000392F2115310509F448C08AE091E0BE0109
:100480006F5F7F4F0E94880B0E9473016E0108947A
:10049000C11CD11C00E010E00F2EF4E1EF2EFF2470
:1004A000F02D2BC08A3051F4C801B7010E94750AA3
:1004B0009701281B390B020F131F04C00E94D7019C
:1004C0000F5F1F4FC801B7010E94750A0097A9F47A
:1004D000C801B7010E94750A6230710549F06330A6
:1004E000710549F06130710541F40E94C10105C0F8
:1004F0000E94C50102C00E94C901F60181916F01ED
:10050000882319F0003511056CF2CF5ADF4F0FB672
:10051000F894DEBF0FBECDBFDF91CF911F910F9139
:10052000FF90EF90DF90CF9008950E947F010E948E
:100530002901CC24DD24D0E010E000E0FF240F2EC0
:10054000F0E0AF2EF1E0BF2EF02D88249924C0E01A
:100550001CC00E943601BC0180E090E00E946A0449
:100560009B01AC018D2F912FA02FBF2DBC01CD0180
:100570000E947203D62F172F082FF92E82E390E0E6
:100580000E9421030894C11CD11C25E0C216D1048D
:1005900004F30E942E01EDB7FEB738970FB6F8941A
:1005A000FEBF0FBEEDBFCDB6DEB60894C11CD11C98
:1005B000B282A182F601938382838D2F912FA02F87
:1005C000BF2DBC01CD0120E030E040EA50E40E94A4
:1005D000D603DC01CB01F60184839583A683B78320
:1005E0000E9412022DB73EB7285F3F4F0FB6F89416
:1005F0003EBF0FBE2DBF8CE291E00E94210364013B
:10060000DC2F1C2F0C2FFC2EC0CF10925C011092FF
:100610005B01882331F48BE085BD87B7806887BF95
:1006200007C0813029F489E085BD87B7806887BF1E
:100630007894089587B78F7787BF85B58F7785BD05
:100640000895CF93DF93EC018AEF83BD10925C0194
:1006500010925B0180E00E94050380915B01909104
:100660005C018C179D07C8F30E941A03DF91CF919C
:1006700008951F920F920FB60F9211248F939F939C
:1006800080915B0190915C01019690935C01809355
:100690005B019F918F910F900FBE0F901F90189547
:1006A00084B3807C84BB85B38F6385BB089580E071
:1006B000089584B38F7384BB85B3806C85BB089524
:1006C00080E0089582B1806F82B983B18F7883B959
:1006D00082E090E00E94210383B18F7083B9089576
:1006E00008955058BB27AA270ED048C139D130F001
:1006F0003ED120F031F49F3F11F41EF42EC10EF4D0
:10070000E095E7FB24C1E92F4AD180F3BA176207CD
:1007100073078407950718F071F49EF562C10EF413
:10072000E0950B2EBA2FA02D0B01B90190010C0101
:10073000CA01A0011124FF27591B99F0593F50F419
:10074000503E68F11A16F040A22F232F342F442771
:10075000585FF3CF469537952795A795F040539569
:10076000C9F77EF41F16BA0B620B730B840BBAF039
:100770009150A1F0FF0FBB1F661F771F881FC2F7A4
:100780000EC0BA0F621F731F841F48F487957795B8
:100790006795B795F7959E3F08F0B3CF9395880F6F
:1007A00008F09927EE0F9795879508950CD0E6C02D
:1007B000DED040F0D5D030F021F45F3F19F0C7C053
:1007C000511110C1CAC0EBD098F39923C9F3552336
:1007D000B1F3951B550BBB27AA2762177307840734
:1007E00038F09F5F5F4F220F331F441FAA1FA9F3EA
:1007F00033D00E2E3AF0E0E830D091505040E695DC
:10080000001CCAF729D0FE2F27D0660F771F881F3C
:10081000BB1F261737074807AB07B0E809F0BB0B2B
:10082000802DBF01FF2793585F4F2AF09E3F51054F
:1008300068F08DC0D7C05F3FECF3983EDCF386953F
:1008400077956795B795F7959F5FC9F7880F911DC5
:100850009695879597F90895E1E0660F771F881FB1
:10086000BB1F621773078407BA0720F0621B730B64
:10087000840BBA0BEE1F88F7E095089598D088F0A6
:100880009F5790F0B92F9927B751A0F0D1F0660F7C
:10089000771F881F991F1AF0BA95C9F712C0B13097
:1008A00081F09FD0B1E008959CC0672F782F8827F2
:1008B000B85F39F0B93FCCF3869577956795B395D6
:1008C000D9F73EF490958095709561957F4F8F4F45
:1008D0009F4F0895E89409C097FB3EF4909580954A
:1008E000709561957F4F8F4F9F4F9923A9F0F92FF6
:1008F00096E9BB279395F695879577956795B79574
:10090000F111F8CFFAF4BB0F11F460FF1BC06F5F59
:100910007F4F8F4F9F4F16C0882311F096E911C06B
:10092000772321F09EE8872F762F05C0662371F08C
:1009300096E8862F70E060E02AF09A95660F771FA0
:10094000881FDAF7880F9695879597F9089597F994
:100950009F6780E870E060E008959FEF80EC089565
:1009600000240A941616170618060906089500248E
:100970000A9412161306140605060895092E039408
:10098000000C11F4882352F0BB0F40F4BF2B11F47C
:1009900060FF04C06F5F7F4F8F4F9F4F089557FDDB
:1009A0009058440F551F59F05F3F71F04795880FDD
:1009B00097FB991F61F09F3F79F087950895121674
:1009C00013061406551FF2CF4695F1DF08C0161620
:1009D00017061806991FF1CF8695710561050894D1
:1009E0000895E894BB2766277727CB0197F90895E8
:1009F0000BD0C4CFB5DF28F0BADF18F0952309F08B
:100A0000A6CFABCF1124EECFCADFA0F3959FD1F3D1
:100A1000950F50E0551F629FF001729FBB27F00DAC
:100A2000B11D639FAA27F00DB11DAA1F649F662701
:100A3000B00DA11D661F829F2227B00DA11D621F50
:100A4000739FB00DA11D621F839FA00D611D221F0A
:100A5000749F3327A00D611D231F849F600D211DEE
:100A6000822F762F6A2F11249F5750408AF0E1F091
:100A700088234AF0EE0FFF1FBB1F661F771F881FDA
:100A800091505040A9F79E3F510570F060CFAACF1A
:100A90005F3FECF3983EDCF3869577956795B795C5
:100AA000F795E7959F5FC1F7FE2B880F911D9695EF
:100AB000879597F90895FA01EE0FFF1F30962105EB
:100AC000310599F16115710561F48038BFE39B0729
:100AD00049F168949038810561F08038BFEF9B0739
:100AE00041F0992342F5FF3FE1053105210511F160
:100AF000E8940894E795D901AA2329F4AB2FBE2FD7
:100B0000F85FD0F310C0FF5F70F4A695E0F7F739F7
:100B100050F019F0FF3A38F49F779F930CD00F9064
:100B200007FC905808953EF018CF60E070E080E830
:100B30009FE308954FE79F775F934F933F932F93E2
:100B40009ED02F913F914F915F9152DF05C019F4D4
:100B50000EF0FDCE46CF01CF2ADFC8F39638C0F79E
:100B600007F80F92E8942BE33AEA48EB5FE74EDF91
:100B70000F920F920F924DB75EB70F92C0D0ECE874
:100B8000F0E016D04F915F91EF91FF91E595EE1F48
:100B9000FF1F49F0FE57E0684427EE0F441FFA9507
:100BA000E1F74195550B32D00F9007FE26C008950E
:100BB000DF93CF931F930F93FF92EF92DF927B010E
:100BC0008C01689405C0DA2EEF011EDFFE01E89467
:100BD000A5912591359145915591AEF3EF0193DDA6
:100BE000FE019701A801DA9479F7DF90EF90FF906A
:100BF0000F911F91CF91DF9108959B01AC0160E0AF
:100C000070E080E89FE3D2CDA2CEACC0D0DEE8F3A6
:100C10009923D9F3940F511DBBF39150504094F098
:100C200059F0882332F0660F771F881F915050408B
:100C3000C1F79E3F510544F7880F911D9695879502
:100C400097F908955F3FACF0983E9CF0BB278695DE
:100C500077956795B79508F4B1609395C1F7BB0F89
:100C600058F711F460FFE8CF6F5F7F4F8F4F9F4FB2
:100C7000E3CFB8CE0EF076C070CE689468CE97DE23
:100C8000C8F39923D1F3C6F3DF93CF931F930F9348
:100C9000FF92C92FDD2788232AF02197660F771F3F
:100CA000881FDAF720E030E040E85FEB9FE3883907
:100CB00020F0803E30F021968F7714DDE4EBF0E0F9
:100CC00003C010DDE1EEF0E073DF8B01BE01EC014B
:100CD000FB2E6F5771097595771F880B990BFCDDFB
:100CE00028E132E741E35FE38FDEAF2D9801AE01EB
:100CF000FF900F911F91CF91DF9105DD3FCEFA015B
:100D0000DC01AA0FBB1F9B01AC01BF5728F42227AF
:100D10003327442750781FC0B75188F4AB2F0024E5
:100D2000469537952795011CA395D2F3002069F0CD
:100D3000220F331F441FB395DAF30DD0D2CC6130AC
:100D40007105A0E88A07B94630F49B01AC0166271B
:100D5000772788279078309621F02083318342834B
:100D6000538308959F3F31F0915020F487957795F4
:100D70006795B795880F911D9695879597F9089572
:100D80002F923F924F925F926F927F928F929F929B
:100D9000AF92BF92CF92DF92EF92FF920F931F9389
:100DA000CF93DF93CDB7DEB765970FB6F894DEBF6C
:100DB0000FBECDBF4C017F876E87FC011782168264
:100DC000838181FD04C076C34C855D8504C01E010E
:100DD0000894211C311CF4019381EE85FF8593FD5D
:100DE000859193FF8191FF87EE87882309F45EC385
:100DF000853241F493FD859193FF8191FF87EE87C2
:100E0000853259F490E0B4014C8B5D8B0E949A0BB3
:100E10004C895D895D874C87D7CFFF24DD2410E0A6
:100E20001032B0F48B3269F08C3228F4803251F0F9
:100E3000833271F40BC08D3239F0803349F4116084
:100E40002CC01260146029C0186027C0106125C032
:100E500017FD2EC0282F20532A3098F416FF08C003
:100E60008F2D880FF82EFF0CFF0CF80EF20E15C018
:100E70008D2D880FD82EDD0CDD0CD80ED20E106211
:100E80000CC08E3221F416FD11C3106406C08C36DE
:100E900011F4106802C0883659F4EE85FF8593FD81
:100EA000859193FF8191FF87EE87882309F0B8CF62
:100EB000982F9554933018F41061805E06C0982FD7
:100EC0009556933008F0A2C11F7E16FD02C0E6E0E1
:100ED000FE2E1F73853611F4106406C0863611F499
:100EE000106802C0F110FA9417FF07C0FBE3FF156A
:100EF00048F0EF2CE39427E00DC027E02F1530F0E9
:100F00002F2D07C027E07CE3E72E04C027E067E031
:100F1000F62EEE24CA0104969D878C87FA01608123
:100F2000718182819381A1010E2D0E949C0A5C0136
:100F3000C9802C2D30E0398B288BC0FE03C0388946
:100F400033FF06C011FD06C012FF06C000E205C057
:100F50000DE203C00BE201C000E0888999898C7022
:100F60009070009709F43CC0002311F084E001C0A8
:100F700083E08D1558F4D81A13FD09C080E290E083
:100F8000B4010E949A0BDA94C9F701C0DD24002352
:100F900029F0802F90E0B4010E949A0B888983FD8C
:100FA00005C032E1E32E31E0F32E11C02EE0E22E37
:100FB00021E0F22E0CC00115110509F0805290E0DD
:100FC000B4010E949A0B0894E11CF11C04C0012F8B
:100FD00010E000711070F7018491882361F763C2FB
:100FE00017FF0EC0EA0CF889F4FF04C08A81813330
:100FF00009F4EA941E144CF528E02E1548F12CC093
:1010000016FD2AC08F2D90E08A159B0544F03CEF19
:10101000A3163FEFB3061CF0106801C0FA94FF203E
:1010200049F0E2E0F0E0EC0FFD1FEF0DF11D8081D3
:101030008033A1F317FF10C0EF2CE3948F2D90E0C5
:10104000A816B90644F4FA1807C0EE24E39404C0C5
:1010500098E0E92E01C0FF2417FF07C01A141B04F3
:101060003CF495012F5F3F4F05C025E030E002C002
:1010700021E030E0002311F02F5F3F4FFF2029F0E7
:101080008F2D90E00196280F391F8D2D90E02817A5
:10109000390714F4D21A01C0DD24612E7724C3016C
:1010A00089709070009749F406C080E290E0B40126
:1010B0000E949A0BDA94DD20C1F7002329F0802FDB
:1010C00090E0B4010E949A0B63FC09C006C080E363
:1010D00090E0B4010E949A0BDA94DD20C1F717FF6B
:1010E00048C08501B7FE02C000E010E06624772406
:1010F00095012E1931093B8B2A8B2501401A510A83
:10110000420C531C6F2D70E0EE24FF24E61AF70A00
:101110003FEF0F3F130729F48EE290E0B4010E94E5
:101120009A0BA016B10654F02A893B892017310783
:101130002CF4F201E60DF71D818101C080E301501E
:1011400010400894611C711C0E151F052CF090E0D6
:10115000B4010E949A0BDCCF0A151B0541F49A8159
:10116000963320F4953319F4388934FF81E390E005
:1011700049C08A81813311F09FEEC92290E0B40109
:101180000E949A0BFF2089F08EE290E0B4010E9449
:101190009A0B12E0F101E10FF11D1F5F808190E0D9
:1011A000B4010E949A0BFA94A9F764FE03C085E487
:1011B00090E002C085E690E0B4010E949A0BB7FC73
:1011C00005C0A114B10441F4C4FE06C0B094A194BA
:1011D000B108B3948DE201C08BE290E0B4010E94AB
:1011E0009A0B80E305C08F5FE6EFFFEFAE0EBF1EE8
:1011F000FAE0AF16B104BCF790E0B4010E949A0B7C
:10120000C501C096B4010E949A0B4DC1833631F0DE
:10121000833789F0833509F059C022C09A012E5FC7
:101220003F4F3D872C87FA018081898381E0E82E3A
:10123000F12C510113C09A012E5F3F4F3D872C873F
:10124000FA01A080B18016FF03C06F2D70E002C0CC
:101250006FEF7FEFC5010E948F0B7C011F7714C0D9
:101260009A012E5F3F4F3D872C87FA01A080B18005
:1012700016FF03C06F2D70E002C06FEF7FEFC50156
:101280000E94740B7C01106813FD1CC006C080E234
:1012900090E0B4010E949A0BDA948D2D90E0E8164C
:1012A000F906A8F30FC0F50117FD859117FF81918D
:1012B0005F0190E0B4010E949A0BD110DA94089477
:1012C000E108F108E114F10471F7EDC0843611F082
:1012D000893671F59A0117FF0AC02C5F3F4F3D8791
:1012E0002C87FA0180819181A281B3810BC02E5F8E
:1012F0003F4F3D872C87FA0180819181AA2797FD76
:10130000A095BA2F012F0F76B7FF08C0B095A09512
:10131000909581959F4FAF4FBF4F0068BC01CD01A5
:10132000A1012AE030E00E94FE0BE82EE21841C045
:10133000853721F41F7E2AE030E020C0197F8F36E8
:10134000A9F0803720F4883509F0B0C00BC0803791
:1013500021F0883709F0AAC001C0106114FF09C04C
:10136000146007C014FF08C0166006C028E030E013
:1013700005C020E130E002C020E132E0CA0117FFE1
:1013800009C004969D878C87FA01608171818281F2
:10139000938108C002969D878C87FA0160817181D4
:1013A00080E090E0A1010E94FE0BE82EE218012FE0
:1013B0000F7706FF09C00E7FEF1430F404FF06C05C
:1013C00002FD04C00F7E02C01E2D01C01F2D802F04
:1013D00090E004FF0CC0FE01EE0DF11D20812033D2
:1013E00011F4097E09C002FF06C01E5F05C08678A1
:1013F0009070009709F01F5FA02EBB2403FD12C060
:1014000000FF0DC0FE2C1D1550F4FD0CF11A1D2D12
:1014100006C080E290E0B4010E949A0B1F5F1D1588
:10142000C0F304C01D1510F4D11A01C0DD24A4FEC0
:101430000FC080E390E0B4010E949A0BA2FE1FC08F
:10144000A1FE03C088E590E010C088E790E00DC0E1
:10145000C50186789070009791F0A1FC02C080E2EF
:1014600001C08BE207FD8DE290E0B4010E949A0B6F
:1014700006C080E390E0B4010E949A0BFA94EF1446
:10148000C0F3EA94F101EE0DF11D808190E0B4010A
:101490000E949A0BEE20A9F706C080E290E0B4010A
:1014A0000E949A0BDA94DD20C1F78ECCF40186817C
:1014B000978102C08FEF9FEF65960FB6F894DEBF5D
:1014C0000FBECDBFDF91CF911F910F91FF90EF9095
:1014D000DF90CF90BF90AF909F908F907F906F9054
:1014E0005F904F903F902F90089597FB092E07260D
:1014F0000AD077FD04D00CD006D000201AF47095E5
:1015000061957F4F0895F6F7909581959F4F0895C7
:10151000AA1BBB1B51E107C0AA1FBB1FA617B70719
:1015200010F0A61BB70B881F991F5A95A9F7809535
:101530009095BC01CD010895283008F027E03327AD
:10154000DA01990F311D87FD9160009661057105E3
:1015500039F432602E5F3D9330E32A95E1F7089528
:101560009F3F30F080387105610509F03C5F3C5FBA
:101570003D93913008F08068911DDF93CF931F93C6
:101580000F93FF92EF92192F987F9695E92F9695DA
:101590009695E90FFF27E059FE4F99273327EE2450
:1015A000FF24A701E70105900894079428F4360F5B
:1015B000E71EF81E491F511D660F771F881F991FD0
:1015C0000694A1F70590079428F4E70EF81E491F2A
:1015D000561FC11D770F881F991F661F0694A1F71C
:1015E0000590079428F4F80E491F561FC71FD11DF8
:1015F000880F991F661F771F0694A1F7059007941F
:1016000020F4490F561FC71FD81F990F661F771F59
:10161000881F0694A9F784911095177041F0D6950C
:10162000C79557954795F794E7941A95C1F7E6E162
:10163000F1E068941590159135916591959105901B
:101640007FE27395E118F10A430B560BC90BD009E1
:10165000C0F7E10CF11E431F561FC91FD01D7EF4B9
:10166000703311F48A95E6CFE894015030F0080FFA
:101670000AF40027021708F4202F2395022F7A334B
:1016800028F079E37D932A95E9F710C07D932A9598
:1016900089F6069497956795379517951794E118ED
:1016A000F10A430B560BC90BD00998F023957E9194
:1016B00073957A3308F070E37C932013B8F77E912A
:1016C00070617D9330F0839571E37D9370E32A958B
:1016D000E1F71124EF90FF900F911F91CF91DF91CF
:1016E000992787FD90950895FC0105906150704001
:1016F0000110D8F7809590958E0F9F1F0895FB01DC
:10170000DC018D91019080190110D9F3990B089596
:10171000FB01DC0101900D920020E1F70895FC012E
:101720006150704001900110D8F7809590958E0F10
:101730009F1F08950F931F93CF93DF938C01EB01AD
:101740008B8181FF1BC082FF0DC02E813F818C8168
:101750009D812817390764F4E881F9810193F983A1
:10176000E88306C0E885F985802F0995009731F454
:101770008E819F8101969F838E8302C00FEF1FEFA2
:10178000C801DF91CF911F910F9108950F931F937F
:10179000CF93DF93CDB7DEB72E970FB6F894DEBFA9
:1017A0000FBECDBF8C0186E08C831A83098377FF3F
:1017B00002C060E070E8615070407E836D83CE01AE
:1017C0000196BA01A9010E94C0064D815E8157FDB4
:1017D0000AC02F813885421753070CF49A01020F73
:1017E000131FF80110822E960FB6F894DEBF0FBEBD
:1017F000CDBFDF91CF911F910F910895FA01AA27D4
:10180000283051F1203181F1E8946F936E7F6E5F43
:101810007F4F8F4F9F4FAF4FB1E03ED0B4E03CD0F1
:10182000670F781F891F9A1FA11D680F791F8A1FD4
:10183000911DA11D6A0F711D811D911DA11D20D03B
:1018400009F468943F912AE0269F11243019305DF5
:101850003193DEF6CF010895462F4770405D4193E6
:10186000B3E00FD0C9F7F6CF462F4F70405D4A3333
:1018700018F0495D31FD4052419302D0A9F7EACFFB
:10188000B4E0A6959795879577956795BA95C9F72A
:1018900000976105710508959B01AC010A2E06941D
:1018A0005795479537952795BA95C9F7620F731FD6
:0C18B000841F951FA01D0895F894FFCF21
:0A18BC0025752C20256620636D00C1
:00000001FF
