:100000000C9446000C9465000C9465000C946500FB
:100010000C9465000C9465000C9465000C946500CC
:100020000C9465000C94AB020C9465000C94EE01EA
:100030000C9465000C9465000C9417020C946500F8
:100040000C9465000C9465000C9465000C9465009C
:100050000C9465000C9465000C9465000C9465008C
:100060000C9465000C9465000C9465000C9465007C
:100070000C9465000C9465000C9465000C9465006C
:100080000C9465000C9465000C94650011241FBE4F
:10009000CFEFD0E1DEBFCDBF11E0A0E0B1E0E0E006
:1000A000FFE000E00BBF02C007900D92A832B1073D
:1000B000D9F711E0A8E2B1E001C01D92A138B10763
:1000C000E1F70E94A8010C947E070C940000DE9AD0
:1000D00090E00E949302DE988BB3807F8BBB0895E3
:1000E000CF93C82FDC988BB39C2F92959F70892B50
:1000F0008BBB82E00E9467008BB3CF70C82BCBBB59
:1001000082E00E946700DC9ACF91089581E00E940E
:10011000700081E090E00E949302089582E00E94C6
:10012000700008958FEF8ABB83E08BBBDE9A81E07D
:1001300090E00E949302DE9885E090E00E94930296
:10014000DE9A81E090E00E949302DE98DE9A81E0E0
:1001500090E00E949302DE9882E08BBB81E00E94D7
:1001600067008BB38BBB81E00E9467008BB38E600E
:100170008BBB81E00E9467008BB38BBB81E00E9448
:1001800067008BB386608BBB81E00E9467008BB3F6
:100190008BBB81E00E946700D89A81E00E946700D3
:1001A000DC9A0E948E00089580EC0E9470000895F1
:1001B00084E90E947000089584ED0E947000089503
:1001C000883618F480680E947000089588E10E94C3
:1001D00070000895CF93C82F8BB39C2F92959F707A
:1001E000892B8BBB81E00E9467008BB3CF70C82B3B
:1001F000CBBB81E00E946700CF910895EF92FF9200
:100200000F931F93CF93DF93E82FF92FEF010990FE
:100210000020E9F72197CE1BDF0B1C161D0674F496
:10022000E82EF92E00E010E0F70181917F010E9495
:10023000EA000F5F1F4FC017D107B1F7DF91CF91D1
:100240001F910F91FF90EF900895CF92DF92EF9260
:10025000FF920F931F93CF93DF93CDB7DEB7C155B6
:10026000D0400FB6F894DEBF0FBECDBFFE01E45AFA
:10027000FF4F41915191CE01019661E570E02E2F23
:100280003F2F0E949F0488E291E0BE016F5F7F4F85
:100290000E948F04282F392F2115310509F448C0F9
:1002A00088E291E0BE016F5F7F4F0E9498040E9438
:1002B00086006E010894C11CD11C00E010E00F2ED6
:1002C000F4E1EF2EFF24F02D2BC08A3051F4C80149
:1002D000B7010E9468049701281B390B020F131FF6
:1002E00004C00E94EA000F5F1F4FC801B7010E94BF
:1002F00068040097A9F4C801B7010E94680462303D
:10030000710549F06330710549F06130710541F4C0
:100310000E94D40005C00E94D80002C00E94DC00E8
:10032000F60181916F01882319F0003511056CF2F7
:10033000CF5ADF4F0FB6F894DEBF0FBECDBFDF91AF
:10034000CF911F910F91FF90EF90DF90CF90089584
:100350000E9492000E94E70100E011E00E94280242
:10036000EC01BC0180E090E00E9466026B017C0120
:100370000E94E4012DB73EB72A5030400FB6F894E2
:100380003EBF0FBE2DBFEDB7FEB73196ADB7BEB7BE
:1003900012961C930E931197D383C283C482D58285
:1003A000E682F782808711860E9425012DB73EB72D
:1003B000265F3F4F0FB6F8943EBF0FBE2DBF8CE2B5
:1003C00091E00E949302CACF80917A010895109221
:1003D0007A011FBC82E08EBD789408951F920F921F
:1003E0000FB60F9211248F939F93F89486B597B50B
:1003F0000EB406FE08C090937E0180937D018EB5F9
:100400008F7B8EBD09C090937C0180937B011092FD
:10041000790187B78F7D87BF86B7806286BF789462
:100420009F918F910F900FBE0F901F9018951F9264
:100430000F920FB60F9211248F9380917A018F5FE4
:1004400080937A018F910F900FBE0F901F90189597
:100450008C9A949A81E090E00E94930294988C98F0
:100460001DBC1CBC86B7806286BF8EB580648EBD05
:100470008EB582608EBD87B7806287BF81E0809332
:10048000790180917B0190917C0120917D013091D7
:100490007E01821B930B08958C9A949A81E090E0E0
:1004A0000E94930294988C981DBC1CBC86B78062F5
:1004B00086BF8EB580648EBD8EB582608EBD87B7D7
:1004C000806287BF81E080937901FFCF0E9477032C
:1004D00020E030ED44E858E40E94050420E034E2D6
:1004E00044EF5BE40E94E3020E944B0308951092E4
:1004F000800110927F01882331F48BE085BD87B79E
:10050000806887BF07C0813029F489E085BD87B73F
:10051000806887BF7894089587B78F7787BF85B540
:100520008F7785BD0895CF93DF93EC018AEF83BD6C
:100530001092800110927F0180E00E9477028091EA
:100540007F01909180018C179D07C8F30E948C0257
:10055000DF91CF9108951F920F920FB60F92112441
:100560008F939F9380917F0190918001019690934A
:10057000800180937F019F918F910F900FBE0F900C
:100580001F90189584B3807C84BB85B38F6385BB33
:10059000089580E0089584B38F7384BB85B3806C25
:1005A00085BB089580E0089582B1806F82B983B1E0
:1005B0008F7883B982E090E00E94930283B18F70BC
:1005C00083B9089508950CD0E6C0DED040F0D5D0B0
:1005D00030F021F45F3F19F0C7C0511110C1CAC0FB
:1005E000EBD098F39923C9F35523B1F3951B550B21
:1005F000BB27AA2762177307840738F09F5F5F4FF6
:10060000220F331F441FAA1FA9F333D00E2E3AF036
:10061000E0E830D091505040E695001CCAF729D050
:10062000FE2F27D0660F771F881FBB1F261737079F
:100630004807AB07B0E809F0BB0B802DBF01FF27CF
:1006400093585F4F2AF09E3F510568F08DC0D7C088
:100650005F3FECF3983EDCF3869577956795B79509
:10066000F7959F5FC9F7880F911D9695879597F924
:100670000895E1E0660F771F881FBB1F621773079D
:100680008407BA0720F0621B730B840BBA0BEE1FB2
:1006900088F7E095089598D088F09F5790F0B92F8B
:1006A0009927B751A0F0D1F0660F771F881F991FC7
:1006B0001AF0BA95C9F712C0B13081F09FD0B1E0FD
:1006C00008959CC0672F782F8827B85F39F0B93F0D
:1006D000CCF3869577956795B395D9F73EF49095C9
:1006E0008095709561957F4F8F4F9F4F0895E89447
:1006F00009C097FB3EF490958095709561957F4F6A
:100700008F4F9F4F9923A9F0F92F96E9BB27939517
:10071000F695879577956795B795F111F8CFFAF427
:10072000BB0F11F460FF1BC06F5F7F4F8F4F9F4F58
:1007300016C0882311F096E911C0772321F09EE8B6
:10074000872F762F05C0662371F096E8862F70E01C
:1007500060E02AF09A95660F771F881FDAF7880FF6
:100760009695879597F9089597F99F6780E870E0C7
:1007700060E008959FEF80EC089500240A94161617
:10078000170618060906089500240A94121613067F
:10079000140605060895092E0394000C11F488230D
:1007A00052F0BB0F40F4BF2B11F460FF04C06F5F29
:1007B0007F4F8F4F9F4F089557FD9058440F551FFF
:1007C00059F05F3F71F04795880F97FB991F61F0D3
:1007D0009F3F79F087950895121613061406551F4A
:1007E000F2CF4695F1DF08C0161617061806991FB6
:1007F000F1CF86957105610508940895E894BB27AB
:1008000066277727CB0197F908950BD0C4CFB5DFC2
:1008100028F0BADF18F0952309F0A6CFABCF11244A
:10082000EECFCADFA0F3959FD1F3950F50E0551F8F
:10083000629FF001729FBB27F00DB11D639FAA2735
:10084000F00DB11DAA1F649F6627B00DA11D661F84
:10085000829F2227B00DA11D621F739FB00DA11DA5
:10086000621F839FA00D611D221F749F3327A00D5F
:10087000611D231F849F600D211D822F762F6A2FFB
:1008800011249F5750408AF0E1F088234AF0EE0F80
:10089000FF1FBB1F661F771F881F91505040A9F78D
:1008A0009E3F510570F060CFAACF5F3FECF3983EBA
:1008B000DCF3869577956795B795F795E7959F5FF4
:1008C000C1F7FE2B880F911D9695879597F908958E
:1008D00097FB092E07260AD077FD04D00CD006D04E
:1008E00000201AF4709561957F4F0895F6F7909562
:1008F00081959F4F0895AA1BBB1B51E107C0AA1FFA
:10090000BB1FA617B70710F0A61BB70B881F991FB0
:100910005A95A9F780959095BC01CD010895FB01EA
:10092000DC018D91019080190110D9F3990B089584
:10093000FB01DC0101900D920020E1F708950F9377
:100940001F93CF93DF93CDB7DEB72E970FB6F894F2
:10095000DEBF0FBECDBF8C0186E08C831A83098376
:1009600077FF02C060E070E8615070407E836D8365
:10097000CE010196BA01A9010E94D7044D815E8182
:1009800057FD0AC02F813885421753070CF49A018E
:10099000020F131FF80110822E960FB6F894DEBFD7
:1009A0000FBECDBFDF91CF911F910F9108952F9270
:1009B0003F924F925F926F927F928F929F92AF92EF
:1009C000BF92CF92DF92EF92FF920F931F93CF933C
:1009D000DF93CDB7DEB72D970FB6F894DEBF0FBE0D
:1009E000CDBF3C017D876C875A01FC0117821682BE
:1009F000838181FFC8C12E010894411C511CF30161
:100A00009381EC85FD8593FD859193FF8191FD8711
:100A1000EC87882309F4B3C1853241F493FD8591B5
:100A200093FF8191FD87EC87853229F490E0B30133
:100A30000E94F406E4CFFF24EE2410E01032B0F45C
:100A40008B3269F08C3228F4803251F0833271F4A9
:100A50000BC08D3239F0803349F411602CC0126024
:100A6000146029C0186027C0106125C017FD2EC072
:100A7000282F20532A3098F416FF08C08F2D880F96
:100A8000F82EFF0CFF0CF80EF20E15C08E2D880FFD
:100A9000E82EEE0CEE0CE80EE20E10620CC08E3268
:100AA00021F416FD6CC1106406C08C3611F4106878
:100AB00002C0883659F4EC85FD8593FD859193FF3E
:100AC0008191FD87EC87882309F0B8CF982F955442
:100AD000933018F09052933038F424E030E0A20EB6
:100AE000B31E3FE339830FC0833631F0833781F083
:100AF000833509F05AC022C0F5018081898322E044
:100B000030E0A20EB31E21E0C22ED12C420114C04F
:100B100092E0292E312C2A0C3B1CF501808091801B
:100B200016FF03C06F2D70E002C06FEF7FEFC401AE
:100B30000E94E9066C0151011F7715C082E0282E42
:100B4000312C2A0C3B1CF5018080918016FF03C0DC
:100B50006F2D70E002C06FEF7FEFC4010E94DE06D0
:100B60006C011068510113FD1CC006C080E290E0CA
:100B7000B3010E94F406EA948E2D90E0C816D906BF
:100B8000A8F30FC0F40117FD859117FF81914F0164
:100B900090E0B3010E94F406E110EA940894C108C1
:100BA000D108C114D10471F7E7C0843611F0893639
:100BB00051F5F50117FF07C080819181A281B381B2
:100BC00024E030E008C080819181AA2797FDA0959C
:100BD000BA2F22E030E0A20EB31E012F0F76B7FF2E
:100BE00008C0B095A095909581959F4FAF4FBF4F8E
:100BF0000068BC01CD01A2012AE030E00E9420077C
:100C0000D82ED4183FC0853721F41F7E2AE030E06B
:100C100020C0197F8F36A9F0803720F4883509F07D
:100C2000AEC00BC0803721F0883709F0A8C001C0E2
:100C3000106114FF09C0146007C014FF08C01660DB
:100C400006C028E030E005C020E130E002C020E12D
:100C500032E0F50117FF07C06081718182819381C5
:100C600044E050E006C06081718180E090E042E0A5
:100C700050E0A40EB51EA2010E942007D82ED41861
:100C8000012F0F7706FF09C00E7FDF1430F404FF39
:100C900006C002FD04C00F7E02C01D2D01C01F2D25
:100CA000802F90E004FF0CC0FE01ED0DF11D2081AE
:100CB000203311F4097E09C002FF06C01E5F05C083
:100CC00086789070009709F01F5F802E992403FDAD
:100CD00012C000FF0DC0FD2C1E1550F4FE0CF11AC1
:100CE0001E2D06C080E290E0B3010E94F4061F5F53
:100CF0001E15C0F304C01E1510F4E11A01C0EE2445
:100D000084FE0FC080E390E0B3010E94F40682FEEF
:100D10001FC081FE03C088E590E010C088E790E026
:100D20000DC0C40186789070009791F081FC02C0DC
:100D300080E201C08BE207FD8DE290E0B3010E94EA
:100D4000F40606C080E390E0B3010E94F406FA9432
:100D5000DF14C0F3DA94F201ED0DF11D808190E013
:100D6000B3010E94F406DD20A9F706C080E290E0FE
:100D7000B3010E94F406EA94EE20C1F740CEF301DD
:100D80008681978102C08FEF9FEF2D960FB6F89462
:100D9000DEBF0FBECDBFDF91CF911F910F91FF90AE
:100DA000EF90DF90CF90BF90AF909F908F907F900B
:100DB0006F905F904F903F902F900895FC010590A9
:100DC000615070400110D8F7809590958E0F9F1F4D
:100DD0000895FC016150704001900110D8F7809592
:100DE00090958E0F9F1F08950F931F93CF93DF93BE
:100DF0008C01EB018B8181FF1BC082FF0DC02E8116
:100E00003F818C819D812817390764F4E881F9813D
:100E10000193F983E88306C0E885F985802F099559
:100E2000009731F48E819F8101969F838E8302C04B
:100E30000FEF1FEFC801DF91CF911F910F91089520
:100E4000FA01AA27283051F1203181F1E8946F93FB
:100E50006E7F6E5F7F4F8F4F9F4FAF4FB1E03ED0A1
:100E6000B4E03CD0670F781F891F9A1FA11D680F3F
:100E7000791F8A1F911DA11D6A0F711D811D911D72
:100E8000A11D20D009F468943F912AE0269F1124E7
:100E90003019305D3193DEF6CF010895462F47704B
:100EA000405D4193B3E00FD0C9F7F6CF462F4F70A6
:100EB000405D4A3318F0495D31FD4052419302D004
:100EC000A9F7EACFB4E0A6959795879577956795AA
:100ED000BA95C9F700976105710508959B01AC01AA
:100EE0000A2E06945795479537952795BA95C9F7D1
:100EF000620F731F841F951FA01D0895F894FFCFE4
:100F000044656C74613A202564200A4469737461F5
:100F10006E63653A202564200A4F766572666C6FB1
:080F200077733A2025640000FC
:00000001FF
